:020000040800F2
:10000000500D00209D010008DD0400086D0300086C
:10001000D904000887020008650D000800000000F0
:10002000000000000000000000000000B909000806
:100030008B020008000000008D050008110B00086D
:10004000B7010008B7010008B7010008B7010008B0
:10005000B7010008B7010008B7010008B7010008A0
:10006000B7010008B7010008B7010008B701000890
:10007000B7010008B7010008B7010008B701000880
:10008000B7010008B7010008B7010008B701000870
:10009000B7010008B7010008B7010008B701000860
:1000A000B7010008B7010008B7010008B701000850
:1000B000950B0008B7010008B7010008B701000858
:1000C000B7010008B7010008B7010008B701000830
:1000D000B7010008290C00082B0C00082D0C0008A3
:1000E000B7010008B7010008B7010008B701000810
:1000F000B7010008B7010008000000000000000080
:100100000000000000000000B7010008B70100086F
:100110000000000000000000B7010008B70100085F
:10012000B7010008B7010008B7010008B7010008CF
:10013000B7010008B7010008B7010008B7010008BF
:10014000B7010008000000000000000000000000EF
:10015000000000000000000000000000000000009F
:100160000000000000000000B7010008B70100080F
:10017000B701000800000000B701000800000000FF
:1001800000000000B7010008DFF80CD000F04AF8CA
:100190000048004731120008500D002006488047F3
:1001A00006480047FEE7FEE7FEE7FEE7FEE7FEE75C
:1001B000FEE7FEE7FEE7FEE7150B000889010008F1
:1001C0002DE9F05F0546002092469B46884606468C
:1001D000814640241BE0284641464746224600F01F
:1001E00042F853465A46C01A914110D31146184658
:1001F000224600F029F82D1A67EB01084F462246E7
:100200000120002100F020F817EB00094E41201ECC
:10021000A4F10104DFDC484631462A464346BDE8E6
:10022000F09F0000064C074D06E0E06840F0010337
:1002300094E8070098471034AC42F6D3FFF7A8FFC4
:10024000B4140008D4140008202A04DB203A00FA71
:1002500002F1002070479140C2F1200320FA03F31D
:10026000194390407047202A04DB203A21FA02F01B
:100270000021704721FA02F3D040C2F120029140E0
:1002800008431946704700BFFEE77047F0B50A46BD
:1002900000210023002400BF3DE0012505FA01F301
:1002A000156805EA03049C4234D11579012D02D06A
:1002B0001579022D16D185684F000326BE40B5433F
:1002C000856055794E00B5408668354385608688DF
:1002D00001258D40AE438680868895798D40ADB2EC
:1002E0002E43868005684F000326BE40B543056057
:1002F00015794E00B540066835430560C5684F0066
:100300000326BE40B543C560D5794E00B540C668EA
:100310003543C560491C1029BFD3F0BDF0B500239B
:1003200000244D07ED0E02FA05F3CE1000F1200572
:1003300055F826504E07F70E0F26BE40B543CF1096
:1003400000F1200646F82750CE1000F1200555F8A0
:10035000265045EA0304CE1000F1200545F826405A
:10036000F0BD0185704781617047000009A000F071
:10037000FBFC00BFBFF34F8F0A48006800F4E06049
:1003800009490843001D07490860BFF34F8F00BFAC
:1003900000BFFEE748617264204661756C74210DF0
:1003A0000A0000000CED00E00000FA0510B5102175
:1003B0004FF09040FFF7D7FF10BD10B510214FF060
:1003C0009040FFF7CEFF10BD10B50446FFF7F5FFD4
:1003D000204600F027F8FFF7E9FF10BD10B5002414
:1003E000FFF7EBFF402000F01DF80446FFF7DEFFAB
:1003F000204610BD70B504460D461646FFF7DDFFDA
:10040000284600F00FF804E0FF2000F00BF8207001
:10041000641C301EA6F10101CEB2F5D1FFF7C6FF74
:1004200070BD000010B504464FF4805018490860B4
:100430000AE017490868411E154A116020B90020DA
:1004400000F09AFAC0B210BD0221124800F04EFA34
:100450000028EED021460F4800F088FA4FF4805073
:100460000B4908600AE00A490868411E084A116001
:1004700020B9012000F080FAC0B2E4E7012105486C
:1004800000F034FA0028EED0024800F060FADAE713
:10049000080000200030014010B50C22462102481F
:1004A00000F004F810BD0000A814000870B5044660
:1004B0000D461646FFF781FF2846FFF7B3FF03E01E
:1004C0002078FFF7AFFF641C301EA6F10101CEB209
:1004D000F6D1FFF76BFF70BD00BFFEE7704708B5B0
:1004E0004FF4407000F048F825208DF800000120FE
:1004F0008DF8010000208DF8020001208DF8030026
:10050000684600F001F808BD70B5002100230F22F5
:10051000C47804B3154C246804F4E064C4F5E064C2
:10052000210AC1F10403CA40447804FA03F1847833
:100530001440214309010E4C0678A155047804F0BB
:100540001F050124AC4005786D11AD0005F1E025D3
:10055000C5F8004109E0047804F01F050124AC400F
:10056000044D0678761145F8264070BD0CED00E08C
:1005700000E400E080E100E002490143024A11602A
:10058000704700000000FA050CED00E07047000025
:1005900029B1064A52690243044B5A6104E0034AF6
:1005A00052698243014B5A617047000000100240BB
:1005B00029B1064A92690243044B9A6104E0034A56
:1005C00092698243014B9A6170470000001002401B
:1005D00070B5002100230024002500227A4E7668A1
:1005E00006F00C0121B1042905D0082921D105E02C
:1005F000764E066020E0754E06601DE0724E76680D
:1006000006F47013704E766806F48034022606EB0A
:1006100093431CB96E4E5E43066009E06A4EF66A6B
:1006200006F00F06751C694EB6FBF5F65E430660D4
:1006300002E0664E066000BF00BF634E766806F0BB
:10064000F0010909634E725C0668D64046605E4E52
:10065000766806F4E061090A5E4E725C4668D64030
:100660008660594E766806F46051C90A594E725C2C
:100670004668D640C660544E766806F44041890B01
:10068000554E725CC668B6FBF2F606614E4E766851
:1006900006F07841C1F3C361504E725C0668B6FB48
:1006A000F2F64661484E366B06F04006402E03D007
:1006B00048F21206866102E04FF400468661424E1F
:1006C000366B06F01006102E02D0404EC66101E0D7
:1006D0000668C6613C4E366B06F02006202E02D01E
:1006E0003A4E066201E006680662374E366B06F047
:1006F000030616B9C668466219E0334E366B06F03B
:100700000306012E02D10668466210E02E4E366BBB
:1007100006F00306022E02D1B603466207E02A4E17
:10072000366B06F00306032E01D1284E4662264E94
:10073000366B06F4403616B9866886621DE0224E96
:10074000366B06F44036B6F5803F02D10668866205
:1007500013E01D4E366B06F44036B6F5003F03D16C
:100760004FF40046866208E0174E366B06F44036BA
:10077000B6F5403F01D1154E8662134E366B06F436
:10078000402616B98668C6621DE00F4E366B06F429
:100790004026B6F5802F02D10668C66213E00A4EE5
:1007A000366B06F44026B6F5002F03D14FF4004611
:1007B000C66208E0044E366B06F44026B6F5402FBC
:1007C00001D1024EC66270BD0010024000127A00D4
:1007D00000093D000C0000201C000020200000202B
:1007E00000B587B001214804FFF7D2FE01210803BC
:1007F000FFF7DEFE052211464FF09040FFF78EFD19
:10080000052206214FF09040FFF788FD05220721C1
:100810004FF09040FFF782FD1020009003208DF8EC
:10082000050001208DF8040000208DF806006946BF
:100830004FF09040FFF72AFD2020009002208DF815
:10084000040069464FF09040FFF720FD40200090E3
:1008500002208DF8040069464FF09040FFF716FD26
:100860008020009002208DF8040069464FF09040EF
:10087000FFF70CFDFFF79AFD0020ADF808004FF4DC
:100880008270ADF80A004FF4E060ADF80C00002073
:10089000ADF80E000120ADF810004002ADF81200D6
:1008A0001820ADF814000020ADF81600ADF81800BF
:1008B00002A9074800F023F84FF48051044800F0E3
:1008C0004CF80121024800F005F807B000BD000017
:1008D0000030014021B1028842F04002028004E071
:1008E00002884FF6BF731A4002807047024600200C
:1008F00013890B400BB1012000E00020704710B5B8
:100900000022028802F441520B88CC892343CC8810
:1009100023430C8923434C8923438C8923431A4363
:10092000028082884FF2FF031A408B881A4382802C
:100930000B8A038202884FF6FB731A404B881A43D6
:100940000280838B4FF2FF742340838310BD0146E6
:1009500000220A460C321078704782884EF6FF73E8
:100960001A40828082880A438280704700220246B1
:100970000C3211707047000010B50446214602A0E9
:1009800000F0F2F9002010BD3C3C2D5350492D459C
:1009900052524F522D3E3E2053504920B5C8B4FD0F
:1009A000B3ACCAB1216572726F72436F6465203D4A
:1009B0002025640A00000000704700000CB50020EC
:1009C000019000902C48006840F480302A4908606B
:1009D00000BF2948006800F4003000900198401CD6
:1009E0000190009818B90198B0F5A06FF1D1224894
:1009F000006800F4003010B10120009001E00020F8
:100A000000900098012836D112201C4908601A482D
:100A10004068194948600846406848600846406890
:100A200040F4806048600846406820F47C104860CC
:100A30000846406840F4E81048600846006840F006
:100A40008070086000BF0C48006800F0007000284B
:100A5000F9D00948406820F003000749486008467B
:100A6000406840F00200486000BF0348406800F062
:100A70000C000828F9D10CBD0010024000200240F3
:100A800030B50146B1F1807F01D3012030BD21F0A6
:100A90007F40401E4FF0E022506150170F22002887
:100AA00007DA13071D0E094B00F00F04241F1D5514
:100AB00003E013071C0E064B1C5400BF00204FF030
:100AC000E0229061072010610020DFE718ED00E0D0
:100AD00000E400E031B50D48FFF7D2FF002408E044
:100AE00000BF4FF0E020006900F480300028F8D00B
:100AF000641C00988442F3D34FF0E020006920F09A
:100B000001004FF0E021086138BD000040190100EC
:100B10007047000010B51B48006840F47000194988
:100B200008601948006840F001001749086008464D
:100B3000406800F47F004860084600681349084098
:100B4000114908600846006820F4802008600846C3
:100B5000406820F4FE0048600846C06A20F00F009C
:100B6000C8620846006B0A4908400749086300202C
:100B70008860FFF723FF4FF000600249803908606A
:100B800010BD000088ED00E000100240FFFFF6FEFF
:100B90008C0FFF0F7047000010B588B0044601218C
:100BA0008803FFF705FD07220921C806FFF7B6FBFA
:100BB00007220A214FF09040FFF7B0FB4FF400707E
:100BC000069002208DF81C0003208DF81D0006A958
:100BD0004FF09040FFF75AFB4FF4806006900220E0
:100BE0008DF81C0006A94FF09040FFF74FFB0094D2
:100BF000002001900290039005900C20049069461B
:100C0000074800F045F8FFF76AFC0122054904484F
:100C100000F021F80121024800F009F808B010BDE9
:100C2000003801400501050070477047704721B149
:100C3000026842F00102026003E0026822F0010251
:100C40000260704702460020D3690B400BB10120BF
:100C500000E000207047F0B5034600240026002580
:100C600000201846C1F30724CEB2012707FA06F583
:100C7000022C01D1001D02E0032C00D108301AB172
:100C800007682F43076002E00768AF430760F0BDC5
:100C90002DE9F0418CB004460D460027B8460026E9
:100CA000206820F001002060666826F44056A8689D
:100CB00006436660266841F20C608643E96868680E
:100CC00008432969084306432660A66826F440764F
:100CD00068690643A6606846FFF77AFC1D488442AF
:100CE00002D1DDF8248007E01B48844202D1DDF800
:100CF000288001E0DDF82C80206800F4004060B11D
:100D00004FEA48002968B0FBF1F74FEA480029682C
:100D1000B0FBF1F201FB120607E02868B8FBF0F720
:100D20002868B8FBF0F100FB11862868B6EB500F7D
:100D300000D37F1C206800F4004038B1C7F342069E
:100D40004FF6F07107EA010040EA0607A7810CB0F0
:100D5000BDE8F0810038014000440040C1F30802C2
:100D60000285704700BFFEE70FB4054B10B503A91D
:100D7000044A029800F018F810BC5DF814FB00005B
:100D80000D1200083000002002E008C8121F08C140
:100D9000002AFAD170477047002001E001C1121FFC
:100DA000002AFBD1704700002DE9FF4F8DB00F46A0
:100DB0000546002606E025280BD0DDE90F129047F6
:100DC0006D1C761C28780028F5D111B03046BDE89E
:100DD000F08F0024A246A1460122EC4900E0044322
:100DE00015F8013F203B02FA03F00842F7D12878BA
:100DF0002A2810D06FF02F022878A0F1300109299D
:100E000014D80AEB8A0102EB410144F0020400EB22
:100E1000010A6D1CF0E701CF5FEA000A03D544F434
:100E20000054CAF1000A44F002046D1C28782E28F0
:100E300017D115F8010F44F004042A280ED06FF0E2
:100E40002F022878A0F1300109290AD809EB89017D
:100E500002EB410100EB01096D1CF2E757F8049B1E
:100E60006D1C28786C280FD006DC4C2817D0682819
:100E70000DD06A2814D104E0742810D07A280FD13C
:100E80000DE044F400140AE044F4801401E044F45A
:100E900040146978814202D104F580146D1C6D1CE8
:100EA0002A786E2A1FD00CDC632A31D004DC002A99
:100EB0008BD0582A11D1A3E0642A68D0692A0CD1BA
:100EC00065E0732A2ED004DC6F2A73D0702A04D117
:100ED0009BE0752A6FD0782A6ED01046DDE90F129C
:100EE0009047761C50E1C4F30250022806D0032834
:100EF00009D0042801CF09D0066045E101CFF117E0
:100F0000C0E9006140E101CF06803DE106703BE1B0
:100F100017F8040B8DF8000000208DF80100EB4657
:100F2000012003E057F804BB4FF0FF3061074FF09A
:100F3000000102D40DE008F10101884649450FDAAD
:100F40008045F8DB1BF808100029F4D108E008F10F
:100F5000010188468142FADB1BF808100029F6D10E
:100F6000DDE90F23AAEB08008146214600F036F99F
:100F7000304400EB080604E0DDE90F121BF8010B1A
:100F80009047B8F10108F7D221464846F7E00A2118
:100F9000C4F302534FF0000B0891022B04D001CF91
:100FA000C117032B09D00AE0FF1D27F00707F7E858
:100FB000020108E032E01FE020E000B2C117042B7C
:100FC00001D140B2C117031E71F1000307DA4FF0DF
:100FD000000CD0EB0C006CEB01012D2302E023058B
:100FE00004D52B238DF82430012303E0E30701D03F
:100FF0002023F7E7984658E00A2110E010210EE080
:1010000010204FF0000B08900CE010214FF0000B67
:1010100044F004044FF00809089103E008214FF060
:10102000000B0891C4F30253022B04D001CF00211E
:10103000032B06D006E0FF1D27F00707F7E80201A3
:1010400003E080B2042B00D1C0B24FF000082307A8
:101050002BD5702A07D0DDF820C08CF0100C5CEA8C
:101060000B0C05D00EE040238DF82430012308E05E
:1010700050EA010306D030238DF824308DF8252066
:1010800002239846DDF820C08CF0080C5CEA0B0CBB
:101090000BD150EA010301D1630706D530238DF847
:1010A00024304FF00108A9F10109582A04D038A2D0
:1010B0000B9208AA0A920BE03AA2F9E75B46089A5B
:1010C000FFF77EF80B9B9B5C0A9A521E0A921370E4
:1010D00050EA0102F2D10A98ADEB000000F1200BBA
:1010E000600702D524F4803401E04FF00109D945AE
:1010F00002DDA9EB0B0000E0002000EB0B014144F6
:101100000890AAEB010AE00306D4DDE90F2321468B
:10111000504600F063F806444FF0000908E009A9C2
:1011200011F80900DDE90F12904709F10109761C59
:10113000C145F4DBE0030CD5DDE90F232146504621
:1011400000F04CF8064404E0DDE90F12302090472F
:10115000761C0899481E08900029F5DC08E00A98DA
:101160000A990078491C0A91DDE90F129047761C14
:10117000BBF10001ABF1010BF1DC21465046DDE98A
:101180000F2300F019F806446D1C1BE60928010026
:1011900030313233343536373839616263646566ED
:1011A00000000000303132333435363738394142AF
:1011B00043444546000000002DE9F0410446002567
:1011C0001E461746880404D405E039462020B0475F
:1011D0006D1C641EF9D52846BDE8F0812DE9F0416B
:1011E000044600251E469046C80301D5302700E07E
:1011F0002027880404D505E041463846B0476D1CD9
:10120000641EF9D52846BDE8F081000070B504469B
:101210000D46E1B20548FFF7A1FD00BF802103485C
:10122000FFF710FD0028F9D0204670BD00380140BE
:1012300008B5FFF7D5FA4FF4E130FFF7ADFC1B22FC
:1012400047213948FFF7D6F83748007837490978F9
:10125000884211D1344840783449497888420BD1CA
:101260003148807831498978884205D12E48C07844
:101270002E49C978884206D0FFF70EF91B22472174
:101280002948FFF7B7F82848017829A0FFF76CFD37
:10129000254841782FA0FFF767FD2348817836A0C5
:1012A000FFF762FD2048C1783CA0FFF75DFD1E48B6
:1012B000017943A0FFF758FD1B48417948A0FFF78B
:1012C00053FD1948037AC27981794DA0FFF74CFD8F
:1012D0001548837B427B017B53A0FFF745FD1248F5
:1012E000437C027CC17B5BA0FFF73EFD6820FFF7DB
:1012F0006BF818E0FFF772F800F0040080B90422E0
:1013000043215F48FFF776F85D48401E0079009062
:101310005B48401EC378827841785AA0FFF724FDCD
:101320000120FFF7D7FBE5E734000020A8140008F0
:101330004D4350333536345F436F6E6669672E63B5
:101340006F6E666967303A203078253032580D0A62
:10135000000000004D4350333536345F436F6E66F6
:1013600069672E636F6E666967313A203078253081
:1013700032580D0A000000004D4350333536345FBB
:10138000436F6E6669672E636F6E666967323A20D7
:101390003078253032580D0A000000004D4350339C
:1013A0003536345F436F6E6669672E636F6E6669AC
:1013B00067333A203078253032580D0A000000009B
:1013C0004D4350333536345F436F6E6669672E691F
:1013D00072703A203078253032580D0A0000000033
:1013E0004D4350333536345F436F6E6669672E6DFB
:1013F00075783A203078253032580D0A0000000008
:101400004D4350333536345F436F6E6669672E73D4
:1014100063616E3A203078253032582530325825B5
:101420003032580D0A0000004D4350333536345FDA
:10143000436F6E6669672E6F666673657463616C71
:101440003A203078253032582530325825303258FD
:101450000D0A00004D4350333536345F436F6E66DE
:1014600069672E6761696E63616C3A203078253058
:10147000325825303258253032580D0A000000000D
:10148000010000204D4350333536345F44617461B0
:10149000203A2030782530325825303258253032E5
:1014A00058253032580D0A00300C8BF37301E000E0
:1014B000FF000000D41400080000002034000000E9
:1014C000880D000808150008340000201C0D0000DD
:1014D000980D0008000000000000000000A00000BF
:1014E00000000000010203040102030406070809CA
:1014F00002040608020406080A0C0E1014181C2028
:0815000024282C30000000003B
:040000050800018965
:00000001FF
